:020000040000FA
:0600000002133502083472
:03002B000210942C
:03003300020BB20B
:030053000207633E
:03006B00020B671E
:03007B00020B92E3
:100083000207C501010000000000F8FF07FFFF00A1
:10009300000504000000030001FFFFFFFF00141030
:1000A3002700000020FD000206FFFF1EF11C0000D8
:1000B300000000000000000000000000FF14000525
:1000C300000104010C000201138905A98702040140
:1000D3000C00020000000111890304010701020062
:1000E3000000011789010400006614000000E80302
:1000F3000000FFFFB7140188130000E80300006449
:10010300006400B801A0BB0D00A0BB0D00020202F9
:10011300070401051E02051E020A0A01010808015F
:1001230003B80B02803E0102FEFFE8030A0500014B
:10013300FFFF020A011401E00100B0423BAAB83FED
:100143008C906339AA0CA33A00941E3C8042633D11
:10015300CFFE753E1572313FF304353F8096184B41
:10016300000080BF2292D43EDD9B2A3F0400004062
:10017300FFFF7F7FFFFF7FFF010080341872313F55
:1001830002000000050301010F0300030003000345
:10019300000300030003000300030005000A00142A
:1001A3000028004F009E000000A42E00000000DA8B
:1001B3002D00000000FF000000FF001213816046C5
:1001C300121345603DE9687008F618F618F618F63C
:1001D30022748067F71201F2090909748067F72214
:1001E300121345601D1213817005191919801A1213
:1001F3001221701F121235C37003E66733191919E0
:1002030040071818182208080874FFF618F618F69D
:1002130018F62212123560171213E2702192F012AF
:1002230013F47019501720F014080808090909E796
:10023300F61819E7F61819E7F61819E7F622121354
:10024300F460E6E869701F0808E62480F608E436DF
:10025300F618547FB47F0CE654806007F6E418F672
:1002630018F622181822E9C6CC08C6CD08C6CE084F
:10027300C6CFC0E0E8C0E0EAC0E0EBC0E009E9F8BF
:1002830009E7FA09E7FBE6F918E6F8C3EC98ED99F4
:10029300EE9AEBC2E7F5F0EFC2E795F0500E600C73
:1002A300EBCFFBEACEFAE9CDF9E8CCF8EAA2E7D244
:1002B300E7FAEB33FB13F5F0EEA2E7D2E7FEEF33F9
:1002C300FFC5F013A2E730E601B313C5F0C3C0E0E6
:1002D300C0F07F00C39BFB605E9418600F401D1449
:1002E300601AD0E023F9D0E0F80203C48AF0E948A9
:1002F3006003D2F0E4AFF0FAF9F8803BEB30E40DA1
:1003030089F0EA6003D2F0E4AFF0F9CAF8EB30E326
:100313000D88F0EF6002D2F0AFF0E4CAC9F8EB54F5
:10032300076014FBC3EA13FAE913F9E813F8EF13B0
:100333005002D2E0FFDBEDD0E0C0E030E739C3E4A8
:100343009FFFF5F0EC98FC42F0ED99FD42F0EE9A38
:10035300FE42F0D0E0F9D0E0F8E5F0607AE923F965
:10036300EE20E742D8028067C3EF33FFEC33FCEDA6
:1003730033FDEE33FE80EAEC28FCED39FDEE3AFE68
:10038300D0E023F9D0E0F84002801BC3EE13FEED6A
:1003930013FDEC13FCEF135002D2E0FF08B8000684
:1003A3007F7F74FF802EEF3350178CF020F00260B4
:1003B300100CBC000C0DBD00080EBE000408E86064
:1003C300DFE933E813FFEE2313FE4F4D4C8008E9BA
:1003D3005480FFE4FEFDFCEE33EF33F47004FCFDC8
:1003E3007E80D0E0FBD0E0FAD0E0F8D0E0CFC618B2
:1003F300CEC618CDC618CCC6F92212134570041800
:10040300181822121381700D74FFF61819F61819B3
:10041300F61819F622E7548066F61213F4700F12D9
:1004230013E270F014F608F608F608F680D11213FA
:10043300E2700CF608F608768008E6447F80EC123A
:100443001238700C12122460BFE65480F6E480BBAD
:10045300121224700519191980A5E869700C763FEA
:1004630018768018F618F6E8F922E6CDC0E018EC05
:10047300C0E0E633CD33CDD313F6E719FCE7191902
:1004830033CC33C3947F400ECD9D502408E6548073
:10049300F6E418F6800FF4043D14501408E6447F84
:1004A300F6187680E418F618F6D0E0FCD0E0FD22CA
:1004B300CCD313CCFD18E4C6CBC0E018E4C6CAC045
:1004C300E00808ED08C633E613F618E433C675F002
:1004D30003C3CA97CA09CB97CB199C40047D0880F4
:1004E3002EBD00030205A616B6FF0506060816185C
:1004F300C3CA33CACB33CB33CA27CA09CB37CB19C9
:100503003CC37D08803E187D0820E75CC633C6CA1D
:1005130033CACB33CB33DDF1D5F0EB30E77BCA976E
:10052300CA09CB974ACB199C406F4B7025E620E054
:10053300218066187D08C3CA97CA09CB97CB199C3B
:10054300D3C633C6CA33CACB33CB3350C9DDE7D5A1
:10055300F0E1D3E4C636C608C636C608C636C608B2
:10056300C636C61818188031C3CA97CA09CB97CBA9
:10057300199CB34097C633C6CA33CACB33CB33DDDA
:1005830034D5F02EC6A2E0C640C8CA27CA09CB3765
:10059300194A70BECB3CB480B90808E63308E63389
:1005A300601F181818D0E0FAD0E0FBD0E0FCD0E0D0
:1005B300FD22187D08CA27CA09CB37CB193CD38043
:1005C3008013F618E4B67F11F618B6FF0EF618C6B8
:1005D3000470D20808768080CAF618F618F680C52B
:1005E30000121345604F1213816012E7548066F6C0
:1005F30012122170111213E2703B090909F4F61863
:10060300F618F618F62212123570151213F40808AC
:100613000860EAE6447FF618768018E4F618F622B6
:100623001213F460161213E27012E4F608F608F6D9
:1006330008E65480F609090918181822EAC0E0EB05
:10064300C0E0ECC0E0EDC0E0E687F0A4FBACF0084E
:10065300E687F0A42CFCE435F0FA1809E687F0A449
:100663002C4B60027401CA35F0FCE433FB09E687C6
:10067300F0D2F7A42CCB35F0FC1908E687F0A42BB5
:10068300CC35F0FBE433FD0819E687F0D2E7A42C60
:100693004ACB35F0CD3400FC09E687F0D2E7A42D30
:1006A300CC35F0FDE433FA0918E687F0D2F7A42C31
:1006B300CD35F0CA3400FC08E687F0D2E7D2F7A4C0
:1006C3002ACC35F07A7E20E70B0ACB33CBCD33CD62
:1006D300CC33CC33CB3350147004ED30E00ED2F175
:1006E300E4CD3DCDCC3CCC3B5005DA05C2F1EB5417
:1006F3007FC63308E63392F0FBE73309E733C39A47
:10070300502D2B70190C0D4C4D70151806E608C3AF
:1007130033700D20F10AA2F013F6E418800B402485
:10072300E4F630F002768018F618F618F68024D333
:100733003B14501074FFA2F013F6187680E418F6F9
:1007430018F6800FA2F013F618E63303F618ECF64A
:1007530018EDF6D0E0FDD0E0FCD0E0FBD0E0FA22CB
:10076300C0E074F1120C3AA2AFE433F509D2AF85BD
:10077300A708AFA1EF5508FE74105E600612173F7D
:1007830075A1EF74085E600812174575A1F7802400
:10079300EFA2E092F0E508A2E082F0501790619892
:1007A300E0F8900658E0C398A2D265D0335002E82F
:1007B300F075A1FE752300E509A2E092AF7F020266
:1007C3000C99C0E074F2120C3AA2AFE433FED2AF3C
:1007D3009061A4E0F8759B00E59158540860087592
:1007E30091F71217938023E591585410600875917F
:1007F300EF1217998014E591A2E092F0E8A2E0824B
:10080300F05007E0C2E0F01218EF9061A3E0F8E5C2
:10081300E9585404600E1218C575E9FB906193E022
:10082300A2E640F2752300EEA2E092AF7F01020C34
:1008330099C0E074F2120C3AA2AFE433FED2AF9047
:1008430061A5E0F8E5BF585404600675BFFB1219B3
:100853000780D11208AB30F0431208F0803E8A08BB
:100863008B098C0A8D0B78081208AB20F01430E743
:100873002B74FFFCFBFA747F8022E4FCFBFA748088
:10088300801AB48008BC00F2BB00EF800F50EBF974
:10089300E4C39AFAE49BFBE49CFCE499C6CC18C637
:1008A300CB18C6CA18C6F922E4C9C608CAC608CBFB
:1008B300C6D3330308CCC63392F0C3947F402E943F
:1008C300184019C9B90704CACBCC225025C309CA99
:1008D30033CACB33CBCC33CC33D9F422F4600DC938
:1008E300CCC313CB13CBCA13CAD9F6CC22E4FCFB7B
:1008F300FA2214FCFBFA22C3E498F8E499F91209EA
:100903003B8026C3E49AFAE49BFBE920E7E912095A
:100913003BE498F8E499F922C3E498F8E499F912CE
:10092300093BE498F8E499F9C3E49AFAE49BFB22BF
:10093300EB20E7CFE920E7E0B90010BB0008E88A25
:10094300F084F8AAF022E4FBC8FA22EB70227B10B1
:10095300C833C8C933C9335007C39AC3DBF280060F
:100963009A50012ADBEAC833F4C8C933F4C9FA221E
:1009730075F008E4C833C8C933C933C99AC99B5051
:1009830004C92AC93BD5F0ECFBC833F4C8E4C9FA5F
:1009930022080808EAC0E0EBC0E086F0E7A4FA18F2
:1009A3000986F0E7A42AFA180986F0E7A42AFA18B8
:1009B3000986F0E7A42AFA1986F0E7A4FBE5F02AF2
:1009C300FA190886F0E7A42BFBE5F03AFA19088632
:1009D300F0E7A42BFBE5F03AFA18180986F0E7A430
:1009E300C5F02BFBE43AFA1908E7C5F0C6A426F6CE
:1009F300E5F03BFBE43AFA1886F0E7A4F6E5F008E5
:100A030026F6E43B08F6E43A08F6D0E0FBD0E0FA39
:100A130022080808E630E7111211E5120A2C08082B
:100A230008C64480C618181822181818E9799EC6F3
:100A330008CAC608CBC608CCC6C370207996CACBF1
:100A4300CC7019798ECBCC70137986CC700EF9806B
:100A53002ACA33CACB33CBCC33CC331930E7F2CCED
:100A6300CBCA3350147004EA30E00DE4CA3ACACB5F
:100A73003BCBCC3CCC500209C3E913C6CC1823139F
:100A8300C6CB18C6CA18C6F922E4CFC0E0E4CEC06C
:100A9300E0E4CDC0E0E4CCC0E075F020E626F60843
:100AA300E633F608E633F608E633F6181818EC339F
:100AB300FCED33FDEE33FEEF33FFC3EC9709ED9707
:100AC30009EE9709EF97191919400FFFEC97FC09E5
:100AD300ED97FD09EE97FE191906D5F0BFECF7095E
:100AE300EDF709EEF709EFF7191919D0E0FCD0E09B
:100AF300FDD0E0FED0E0FF222521C582C0E0E52243
:100B030034FFC583C0E0E521C3958224F810AF0804
:100B13008583228582218008858322858221D2AF25
:100B2300CEF0A3E520F0A37808E608F0A3DEFAEF01
:100B3300F0A3E58124FAF8E608F0A3E608F0A3E6BB
:100B430008F0A30808E608F0A3E608F0A31581154A
:100B530081D0E0FED0E0F8158115811581E8C0E071
:100B6300EEC0E022C0E074F2120C3AA2AFE433FE0E
:100B7300D2AFE589A2E4500579011216797589008F
:100B8300C2C5752300EEA2E092AF7F01020C99C0AB
:100B9300E074F2120C3AA2AFE433FED2AFE58AA2BC
:100BA300E350057902121679758A00C2EB80D3C02F
:100BB300E074F2120C3AA2AFE433FED2AFE58BA29B
:100BC300E050057904121679758B00C2E880B312E0
:100BD30013CDB90003020C24E49005017854791372
:100BE3008002F0A3D8FCD9FA78239000867A01BA60
:100BF30000028007E493A3F608DAF97A547B17908E
:100C03000087783879028015E493A3AD82AE838A96
:100C1300828B83F0A3AA82AB838D828E83D8E9D99A
:100C2300E77582167583FE740112107675823D7521
:100C3300832B7400121076C0D02521C582C0E0E555
:100C43002234FFC583C0E0E521C3958224F310AFAE
:100C5300088583228582218008858322858221D28B
:100C6300AFC8F0A3E9F0A3EAF0A3EBF0A37908E798
:100C730009F0A3D8FAECF0A3EDF0A3EEF0A3EFF0A4
:100C8300A3D0E0F0A3D0E0F0A3D0E0F0A3E520F000
:100C9300A3E5F0F0A322852283852182E0C0E0A3AF
:100CA300E0F9A3E0FAA3E0FBA37808E0F608A3DFEA
:100CB300FAE0FCA3E0FDA3E0FEA3E0FFA3E0C0E0B5
:100CC300A3E0C0E0A3E0F5D0A3E0F520A3E0A3F503
:100CD300F010AF08858322858221800885832285D1
:100CE3008221D2AFD082D083D0E0F8D0E0320000AE
:100CF3002275F0108E248F258582298583288521EE
:100D030082852283E0CEA3E0CF852982852883EBE9
:100D1300C9EAC8EDCBECCAC3E833C8E933C9EA333F
:100D2300CAEB33CBC3EA9EF527EB9FF526B35004FA
:100D3300AB26AA27EC33CCED33CDD5F0DAAE24AF16
:100D43002522121345601C12138160171213F470CD
:100D5300071213E27001D322C0D01213E27006D03F
:100D6300D0B322C32233D0D0501430E0F6C3E79679
:100D73000809E7960809E7960809E796B32220E0F1
:100D8300D5E6970809E6970809E6970809E697B3B1
:100D930022121345601B12138160161213F470079D
:100DA3001213E2600CB322C0D01213E27005D0D04C
:100DB30022C32233D0D0501330E0EBC3E7960809A7
:100DC300E7960809E7960809E7962220E0E4E69704
:100DD3000809E6970809E6970809E69722D083D021
:100DE30082ECC0E0EDC0E0E493A3FCE493A3FDED4B
:100DF3004C600D120EB8EC24FFFCED34FFFD80EFC8
:100E0300E493A3FCE493A3FDED4C600D120F81EC7E
:100E130024FFFCED34FFFD80EFD0E0FDD0E0FCE4E7
:100E230093A3C0E0E493C0E022852283852182E07E
:100E3300A3FEE0A3F5207808E0A3F608DFFAE0A319
:100E4300FFE0A3C0E0E0A3C0E0E0A3C0E0E0A3C0F4
:100E5300E0E0A3C0E010AF088582218583228008EB
:100E6300858221858322D2AFD083D08202107CD0A9
:100E730083D082E9C0E0E493A3C386F0C5F095F084
:100E8300F908E493A386F0C5F095F0700BE493A3FF
:100E9300C3994005E9048002A3E475F002A4258206
:100EA300F582E5F03583F583D0E0F9E493A3C0E060
:100EB300E493C0E022C0E0C3E493960874019396E0
:100EC30018400FE493667008087401936618700065
:100ED3007019A3A3C3E49396087401939618A3A36C
:100EE300400DD0E0D0E0D0E0020E1CA3A3A3A3A347
:100EF300A3D0E0227404800474028000CCC0E0ED2F
:100F0300C0E0E521C39CCCAD2250011D10AF068C7F
:100F1300218D2280068C218D22D2AF120FF8D0E0D2
:100F2300FDD0E0FC2274028000CCC0E0EDC0E0E51F
:100F330021C39CCCAD2250011D10AF068C218D2204
:100F430080068C218D22D2AF120FD6D0E0FDD0E0E7
:100F5300FC22121345602512138160201213F470D2
:100F6300030213E2080808E76670101819E76670B1
:100F73000A1819E76670041819E76622F422C0E01C
:100F8300C0F088F0E49366700808740193661870E3
:100F930000A8F0A3A3700BD0F0D0E0D0E0D0E00223
:100FA3000E1CA3A3D0F0D0E022D083D082CCC0E02B
:100FB300E493A360061210191470FAE493A3600675
:100FC3001211651470FAD0E0FCE493A3C0E0E4933B
:100FD300C0E022CAC0E0E493A3C582CCC582C58326
:100FE300CDC583F0A3C582CCC582C583CDC583DAC5
:100FF300E5D0E0CA22CAC0E0E0A3C582CCC582C561
:1010030083CDC583F0A3C582CCC582C583CDC583FB
:10101300DAE6D0E0CA22C0E0E493A3D39C5010E404
:1010230093A3C39C400AD0E0D0E0D0E0020FC9A351
:10103300A3A3D0E022700908080822601618181824
:10104300C6C333C608C633C608C633C608C633C6C6
:10105300D5E0EA22C008C3E096F50808A3E096426B
:101063000808A3E096420808A3E09645087001D358
:10107300D00822C09FF59FE473D09F22D083D082F3
:10108300C09FE493C0E0740193C0E0740293F59FA2
:1010930022C0E0C0D0E8C0E0A8A8D2AFC2C7752381
:1010A30000E8A2E792AFD0E0F8D0D0D0E03225211B
:1010B300F58210AF08F521400C15228008F5214078
:1010C300021522D2AF852283227404800A7403801E
:1010D30006740280027401C0E0F4041210B1D0E07F
:1010E3001213902200C0D0252110AF08F521500C17
:1010F30005228008F52150020522D2AFD0D022BBB1
:101103000102E722C082C08389828A83BB0003E095
:101113008002E493D083D082226016080808C6C3F5
:1011230013C618C613C618C613C618C613C6D5E009
:10113300EA222521F8E43522F9222521FAE4352291
:10114300FB222521FCE43522FD22C3E0C696F608E6
:10115300A3E0C696F608A3E0C696F608A3E0C696F3
:10116300F622C0E0E493A36C7009D0E0D0E0D0E0B5
:10117300020FC9A3A3D0E022252110AF08F5214017
:101183000C15228008F52140021522D2AF22E06619
:10119300701008A3E066700A08A3E066700408A351
:1011A300E06622E76670100809E766700A0809E737
:1011B3006670040809E76622C3E09608A3E0960870
:1011C300A3E09608A3E096A2D265D03322C3E796A4
:1011D3000809E7960809E7960809E796A2D265D0B9
:1011E3003322181818E4C396F608E496F608E49632
:1011F300F608E496F622C3E096F008A3E096F0081A
:10120300A3E096F008A3E096F022C3E697F6080958
:10121300E697F60809E697F60809E697F6221818FE
:1012230018E60846087009E626087005E633F42236
:101233000822191919E70947097009E727097005F1
:10124300E733F4220922C3E49396087401939608C2
:1012530074029396087403939622E627F60809E628
:1012630037F60809E637F60809E637F6227004224E
:10127300600D18C6C333C608C633C6D5E0F41822BA
:10128300E056F608A3E056F608A3E056F608A3E0F6
:1012930056F622E026F608A3E036F608A3E036F673
:1012A30008A3E036F622E026F008A3E036F008A310
:1012B300E036F008A3E036F022E056F008A3E0564B
:1012C300F008A3E056F008A3E056F022E647F6083C
:1012D30009E647F60809E647F60809E647F622E66F
:1012E30057F60809E657F60809E657F60809E657D8
:1012F300F622600D08C6A2E713C618C613C6D5E0CA
:10130300F322C6F4C608C6F4C608C6F4C608C6F473
:10131300C622C3E09608A3E09608A3E09608A3E0DC
:101323009622C3E7960809E7960809E7960809E7AE
:10133300962275D00075813F752101752205000243
:101343000BD2E6084608C3134608336002E633F4BB
:1013530022600C08C6C313C618C613C6D5E0F42210
:10136300E0F608A3E0F608A3E0F608A3E0F622E619
:10137300F008A3E6F008A3E6F008A3E6F022E709E5
:101383004709C3134709336002E733F422CAC0E0B5
:10139300E6F0A308DAFAD0E0FA22E8F0A3E9F0A332
:1013A300EAF0A3EBF022E0FAA3E0FBA3E0FCA3E066
:1013B300FD22EAF0A3EBF0A3ECF0A3EDF022E0F8BA
:1013C300A3E0F9A3E0FAA3E0FB22E5C754F8440144
:1013D300F5C77901222521F582E43522F58322E739
:1013E3002719471947194722C2AF75D69F02000034
:1013F30022E6261846184618462212107F1DDA02E6
:1014030012107F4ADA0212107F97DA0212107F1F3E
:10141300DB0212107FDADB0212107F3DDC021210B6
:101423007F81DC0212107F1BDD0212107F99DD0227
:1014330012107FCCDD0212107FDADE0212107FFA67
:10144300DE0212107F4EDF0212107F36E00212100E
:101453007F38E20212107FDAE20212107F2AE502DD
:1014630012107FAEE50212107FB3E80212107FE77D
:10147300EA0212107F1FEB0212107F7EEC021210A1
:101483007F88EC0212107FD7EC0212107FA9EE02C4
:1014930012107FF8FD0212107F2CFE0212107F7FC4
:1014A300FE0212107F82FF0212107F3EF002121022
:1014B3007FBAF00212107FEDF00212107F1BF102CF
:1014C30012107F59F10212107F94F30212107FB3AE
:1014D300F30212107FF8F30212107F8EF40212103F
:1014E3007FDAF40212107F6EF50212107F46F602C5
:1014F30012107FA2F60212107F00F70212107F7DF6
:10150300F70212107FB3F70212107FFEF7021210D8
:101513007F24F80212107FB4F80212107F4BF902F5
:1015230012107F97F90212107FC8F90212107FFF81
:10153300F90212107F85FB0212107F4FFC0212107A
:101543007F1FFD0212107F7D940412107F87940485
:1015530012107FF9940412107F04950412107F0F68
:10156300950412107F2A950412107F3995041210E6
:101573007F6E950412107F96950412107FBE95041A
:1015830012107FED950412107FEA960412107F3734
:10159300970412107F4C970412107FDE97041210E9
:1015A3007F2D980412107F59980412107F7E99049E
:1015B30012107F4B9B0412107F34DC0412107F60E7
:1015C300DC0412107F80DC0412107FA7DC041210ED
:1015D3007FEEDD0412107F21DE0412107FDFDE04B4
:1015E30012107F79DF0412107FC2880512107FC7A3
:1015F300880512107FFA880512107F00EE0412107E
:101603007FC7EE0412107FD9EE0412107F54EF044B
:1016130012107F06830512107F17830512107FB502
:10162300830512107FC0830512107FD88305121023
:101633007FF57F0012107FE27F0012107FE78305A2
:1016430012107FF7830512107F0C840512107FC0E0
:10165300840512107F04810512107F878105121003
:101663007FED810512107F5BFA0412107FE2FA040A
:1016730012107FF7FA0412107F3CFB0412107F84D0
:10168300FB0412107F9BFB0412107F5DD104121028
:101693007F6BD10412107FE4D10412107FBCD204FB
:1016A30012107F7FD40412107FCED40412107F0C4B
:1016B300D50412107FF87F0012107FFBF60412107E
:1016C3007F33F70412107F7EF80412107F02F904AF
:1016D30012107F86BB0412107FB2BB0412107FF678
:1016E300BD0412107F36BE0412107F76BE041210A2
:1016F3007F8ABE0412107FA3BE0412107F95BF041D
:1017030012107F3AC00412107F4EC00412107F4E95
:101713007E0012107F727E0012107F8B7E001210EB
:101723007FBD7E0012107FED7E0012107F1A7F00B6
:1017330012107F247F0012107F867F0012107F9586
:101743007F0012107F9F7F0012107FAC7F0012106A
:101753007F5BEB0412107F7BEB0412107FBAEB0468
:1017630012107FD5EB0412107FF4EB0412107F5A92
:10177300EC0412107F63EC0412107FC0EC0412100F
:101783007FCFEC0412107FF3EC0412107FB4ED044E
:1017930012107FC1ED0412107FD2ED0412107F07E7
:1017A300860512107F4F860512107F7B8605121067
:1017B3007FD5B60412107F2FB80412107F3DB804F2
:1017C30012107F50B80412107F65B80412107F7A8C
:1017D300B80412107F8DB80412107F01B9041210DF
:1017E3007F66B90412107FEEB90412107F6ABA043F
:1017F30012107F2EBB0412107F3EBB0412107F4DCC
:10180300BB0412107F6E850512107F92850512109E
:101813007FBA850512107FE2850512107F65F004FB
:1018230012107F8CF00412107FAAF00412107F1D97
:10183300F10412107F88E80412107FA1E80412104B
:101843007FADE80412107FC1E80412107FDFE804C3
:1018530012107FE9E80412107FF3E80412107F06E8
:10186300E90412107F8CE90412107F01EA041210BC
:101873007F30EA0412107F7EEA0412107FCDEA045F
:1018830012107FE8EA0412107FF2EA0412107F03B9
:10189300EB0412107F46EB0412107F5C87051210D5
:1018A3007FA7870512107FEE9D0412107F189E04F8
:1018B30012107F359E0412107F489E0412107F5E23
:1018C3009E0412107FBC9E0412107FF49E0412101B
:1018D3007FE8A20412107F2DA40412107F60A404D9
:1018E30012107FC3A40412107F23A60412107F4B8F
:1018F300A60412107F60A60412107F70A6041210B3
:101903007FB4A60412107F0FA70412107F1FA70431
:1019130012107FEDFC0412107F07FD0412107F2FBD
:10192300FD0412107F48FD0412107F6CFD04121099
:101933007F8AFD0412107FA1FD0412107FCFFD04E6
:1019430012107FEAFD0412107F3BFF0412107F7F09
:10195300FF0412107FAFD80412107FBFD8041210F7
:101963007FC4D90412107FF6D90412107F26DA043B
:1019730012107F49DA0412107F60DA0412107F9A82
:10198300DA0412107FFFDA0412107F41DB04121015
:101993007F80DB0412107FB1DB0412107FDCDB04D9
:1019A30012107F05F90412107F17F90412107F2B10
:1019B300FA0412107F2EFA0412107F008005121011
:1019C3007F36800512107F4C800512107F8E8005B4
:1019D30012107F9E800512107FE2800512107FECAB
:1019E300800512107FA8AF0412107FEBAF04121012
:1019F3007F50B00412107F6DB00412107F0FB1043A
:101A030012107F18B10412107F5DB10412107F868B
:101A1300B10412107F93B10412107F0EB20412109E
:101A23007F99B20412107FDEB20412107F29B3042F
:101A330012107F8EB30412107FB1B30412107F22F1
:101A4300B40412107F77B40412107FB2B4041210DE
:101A53007FE7B40412107FF9B40412107F0BB504AE
:101A630012107F2AB50412107F33B50412107FE6DB
:101A7300B50412107F29B60412107F67B604121042
:101A83007F0B880512107FADFB0412107FB6F204A2
:101A930012107FECF20412107F34F30412107F8DC6
:101AA300F40412107FD1DB0312107FEADC0312105F
:101AB3007F24DD0312107FD2DE0312107F00DF03C9
:101AC30012107F66E10312107FA6E10312107F4A12
:101AD300E30312107FDAE30312107F2EE4031210E4
:101AE3007FD0E40312107F12E50312107F54E50345
:101AF30012107FB1E60312107FFFE70312107F3647
:101B0300EA0312107F64EA0312107F8BEA031210B8
:101B13007F94EA0312107FEBEA0312107F86EB0334
:101B230012107F8EEE0312107F15EF0312107FC683
:101B3300840512107FDE840512107FE884051210DD
:101B43007F3C850512107F62C00412107F78C004A9
:101B530012107F19C10412107F58C10412107F752F
:101B6300C10412107FA6C10412107FF3C104121026
:101B73007F26C20412107F61C20412107F5CC4046A
:101B830012107FC4C40412107F06820512107F65F1
:101B9300820512107FA3820512107FE482051210C2
:101BA3007FB3870512107F00800212107F0C800222
:101BB30012107F6E800212107F78800212107F094C
:101BC300810212107F45810212107F3582021210AA
:101BD3007F82820212107F11830212107F478302D9
:101BE30012107FC2830212107F91850212107F8B25
:101BF300870212107F69880212107F8789021210F0
:101C03007FCD8B0212107F108D0212107FBF8D02C9
:101C130012107F5F920212107F53930212107FF70C
:101C2300930212107F1C940212107FB894021210B8
:101C33007FCD940212107FF1940212107F5F950200
:101C430012107F7C950212107FA6950212107F3C22
:101C5300970212107F5D970212107F0398021210F1
:101C63007F4B980212107FA0980212107F409902B6
:101C730012107FA4990212107F029A0212107FABF6
:101C83009A0212107F199B0212107F4C9B021210B2
:101C93007FBA9B0212107FF59C0212107F6B9E028B
:101CA30012107F089F0212107F46A10212107FAF0D
:101CB300A10212107FD9A10212107FF5A302121004
:101CC3007F9CA60212107FC5A70212107F4FA704A4
:101CD30012107F1DA90412107F32AB0412107F6F04
:101CE300AC0412107FE7AC0412107F13AF04121080
:101CF3007F31AF0412107F4EAF0412107F6BAF041D
:101D030012107FBFFF0312107F1FD50412107FD95B
:101D1300D50412107F3FD60412107F60D604121030
:101D23007F31D70412107F0DC70312107F3CC70306
:101D330012107FB4C70312107FB7C80312107F13AA
:101D4300C90312107F8ACA0312107FA6CA03121096
:101D53007FF8CA0312107F3BCB0312107F4ECB03D5
:101D630012107FA0CB0312107F5BCC0312107FD520
:101D7300CC0312107FFFCC0312107F37CD03121058
:101D83007FB3CE0312107F8CCF0312107FD5D00305
:101D930012107FA8D10312107F30D20312107F7864
:101DA300D20312107F92D20312107FD9D2031210E2
:101DB3007FF9D20312107F8FD30312107F15D40340
:101DC30012107F6FD40312107FB3D40312107F4419
:101DD300D70312107F67D80312107FA3D803121002
:101DE3007F95D90312107FBDD90312107FC0D90389
:101DF30012107FCAD90312107FDDD90312107F5C42
:101E0300DA0312107F92DA0312107FBEDA03121084
:101E13007FE5DA0312107F09DB0312107F7ADB03FD
:101E230012107F88DB0312107FBBDB0312107F7E4F
:101E3300860512107F8A860512107FBE8605121052
:101E43007FFAFF0212107FF3B00312107F16B10363
:101E530012107F5CB20312107FA5B20312107F0D24
:101E6300B30312107F6BB30312107F6EB303121010
:101E73007FBAB30312107F2DB40312107FB5B403DE
:101E830012107FB8B40312107F42B50312107F8380
:101E9300B50312107F66B90312107FFFBA03121045
:101EA3007F5DBB0312107FD8BE0312107F11C003E6
:101EB30012107F80C10312107FB6900412107F2985
:101EC300C30312107F7AC50312107F64EF0312104D
:101ED3007F0EF00312107F86D90212107F8DF0035C
:101EE30012107F09F10312107F5FF10312107FAF0D
:101EF300F10312107F16F20312107F8FF3031210F7
:101F03007FBDF40312107F42F50312107F48F703DD
:101F130012107FF1F70312107F9AF80312107F5CFF
:101F2300F90312107F05FB0312107FADFC0312109F
:101F33007F5EFD0312107F21D30212107F00800306
:101F430012107F74800312107FBC800312107F0075
:101F5300810312107F49810312107F9381031210B2
:101F63007FCB810312107F49820312107FA3820368
:101F730012107FF7830312107F88840312107FE00F
:101F8300840312107FFA840312107F228503121038
:101F93007F7A850312107FE9870312107F08880375
:101FA30012107FEC880312107F1C8A0312107F9992
:101FB3008A0312107FE88A0312107F498B031210E1
:101FC3007FEF8B0312107FBD8D0312107FBD8E0335
:101FD30012107F3B900312107F1C920312107F821A
:101FE300940312107F32960312107F02970312108C
:101FF3007F70970312107F87970312107F7F9803D8
:1020030012107F6F990312107FDA990312107FD198
:10201300E20412107F1DE40412107FDAE4041210AC
:102023007F3EE50412107FABDF0412107FC6DF048E
:1020330012107F0AE00412107F30E00412107F5662
:10204300E00412107F6EE00412107FD1E00412103E
:102053007FE6E00412107F09E20412107F12E2040B
:1020630012107F1BE20412107F24E20412107F2E51
:10207300E20412107FD1C40412107FD0C8041210DE
:102083007FD5C80412107FD7C80412107F8BFE01BE
:1020930012107FDCFF0212107FB2E50412107F1DC5
:1020A300FE0412107FF3860512107FECF404121065
:1020B3007FB67F0012107F72CD0412107F638805F4
:1020C30012107F73880512107F3EC90412107FF22D
:1020D300AB0212107F25AC0212107F91AC021210DA
:1020E3007F2CAD0212107FC9AD0212107F0EAE021B
:1020F30012107F30AE0212107F49AE0212107F6FB2
:10210300AE0212107F91AE0212107FCFAE021210F8
:102113007F13AF0212107F35AF0212107F97AF0209
:1021230012107F5EB00212107F15B10212107F876A
:10213300B10212107F52B20212107FA5B202121026
:102143007F0BB30212107F45B30212107F97B302C5
:1021530012107F05B40212107F70B40212107F7345
:10216300B40212107FF4B40212107F8BB502121066
:102173007F0BB60212107F2AB60212107F8EB702AF
:1021830012107F9BB70212107FA7B80212107FB400
:10219300B80212107FBDB80212107F95BA02121056
:1021A3007FAFBB0212107F28BC0212107F9ABC02C1
:1021B30012107FBCBC0212107F50BD0212107F248C
:1021C300BF0212107FFBC20212107F0FC302121054
:1021D3007F1FC30212107F29C30212107F32C30272
:1021E30012107F3BC30212107F45C30212107F728D
:1021F300C30212107F9BC30212107FA6C3021210E8
:102203007FCAC30212107FEEC30212107F58C402AA
:1022130012107F9EC40212107FBBC40212107F38BB
:10222300C50212107F6FC50212107FAEC5021210D5
:102233007FFBC50212107F81C60212107F4FC802B6
:1022430012107FD2C80212107FB6C90212107F1D6E
:10225300CC0212107F76CC0212107FC0CC02121077
:102263007F1BCE0212107F50CE0212107FA2CE022D
:1022730012107F57CF0212107F06D00212107F4335
:10228300D00212107FD8D00212107F44D102121054
:102293007F91310012107FC3310012107FF13100A2
:1022A30012107FC7330012107FA7340012107FFF74
:1022B300340012107F3A360012107F863600121057
:1022C3007FAF390012107FA23C0012107FF23D0055
:1022D30012107F883E0012107F943E0012107FC6BA
:1022E3003E0012107F49400012107FFA4100121085
:1022F3007F8E420012107FD1420012107F4F4300A5
:1023030012107F6C430012107F9C430012107FD188
:10231300430012107FA1440012107F4A450012109F
:102323007FD0470012107FF0480012107FDB490076
:1023330012107F5D4A0012107F914E0012107FCE63
:102343004E0012107F264F0012107F594F001210BB
:102353007FC34F0012107FF94F0012107F8450008B
:1023630012107FDC500012107FB3510012107F6CEB
:10237300520012107F07530012107F0F56001210E5
:102383007F2B570012107FCE5A0012107FC25B00C2
:1023930012107FC55B0012107FF45B0012107FFAEE
:1023A3005D0012107FD35E0012107F165F001210C3
:1023B3007F6C600012107FAB600012107F346100ED
:1023C30012107F68610012107F2D620012107F458A
:1023D300640012107FB6640012107FF664001210BE
:1023E3007F84650012107FA6660012107F68670065
:1023F30012107F6F690012107F87690012107F9B94
:10240300690012107FD3690012107F016A00121055
:102413007F806B0012107FA56C0012107F026D008D
:1024230012107FB46D0012107FDB6D0012107FA2BB
:102433006E0012107F3A6F0012107F60710012104D
:102443007F95710012107FF8710012107F277300BF
:1024530012107FCF730012107F00740012107F18C8
:10246300740012107FA7740012107F5B77001210A4
:102473007F33790012107F4F790012107F6B790040
:1024830012107F397A0012107F2C7E0012107F1FEA
:10249300890112107F51890112107F408D011210A2
:1024A3007F8C8D0112107FD28D0112107F748E01EB
:1024B30012107FD08E0112107F158F0112107F5CD6
:1024C300900112107F70910112107F5F950112101D
:1024D3007FE3950112107FF0960112107F4C970154
:1024E30012107F3C990112107FB1990112107FBB2A
:1024F300990112107FC8990112107FF399011210EC
:102503007FDA9A0112107F849B0112107F029C01D3
:1025130012107F229C0112107F4B9C0112107F6DC1
:102523009C0112107FCD9E0112107F939F01121008
:102533007FD89F0112107F55A00112107F06A101C1
:1025430012107F38A10112107F7EA10112107FBAF1
:10255300A10112107F0AA20112107F5EA2011210C4
:102563007FB4A20112107F00A30112107F6DA3019B
:1025730012107FE8A30112107FB3A50112107FB3DD
:10258300A60112107FD8A70112107F17AB011210FA
:102593007F2AAE0112107FE7AE0112107F2BAF012D
:1025A30012107FDBB00112107FEFB00112107FF920
:1025B300B00112107F03B10112107F0FB10112108D
:1025C3007F2BB10112107FD6B10112107F15B2011A
:1025D30012107F1FB20112107F29B20112107F99CE
:1025E300B20112107FE4B20112107FF9B30112108D
:1025F3007F55B40112107FD6B40112107F95B50137
:1026030012107F9EB60112107FD2B70112107FC045
:10261300B80112107FD8B80112107F33B90112101C
:102623007F51B90112107F99B90112107FC0B9010E
:1026330012107F5BBA0112107F21BB0112107FB30E
:10264300BB0112107F2DBC0112107F47BD01121078
:102653007FF4BD0112107F1CBF0112107F6CBF01FC
:1026630012107FD0BF0112107F32C00112107F60A1
:10267300C00112107F84C00112107FB9C001121073
:102683007FEAC00112107F1DC10112107F3DC101FD
:1026930012107FA5C10112107F99C20112107FF49D
:1026A300C20112107F1DC30112107FA5C3011210B6
:1026B3007F28C40112107F53C40112107F38C50153
:1026C30012107F01F30112107F39F30112107F5AA8
:1026D300F30112107F9CF30112107FFEF30112101D
:1026E3007F08F40112107F18F40112107F53F401D4
:1026F30012107F33F80112107F20FA0112107F06A7
:10270300FC0112107F9DFC0112107F3FFD0112108E
:102713007F3AC70112107FB8C70112107F14C80196
:1027230012107F5FC80112107F7AC80112107FA5B3
:10273300C80112107FC2C80112107FCEC801121047
:102743007F65CA0112107F7ECA0112107F03CB017D
:1027530012107F16CB0112107F35CB0112107FD9D7
:10276300CB0112107F5ACD0112107F0DCF01121031
:102773007FA3CF0112107FA6CF0112107F16D001C5
:1027830012107F34D00112107FCBD00112107F13AF
:10279300D10112107F16D10112107FDCD10112106A
:1027A3007F49D20112107F6FD20112107FFAD2013A
:1027B30012107F18D30112107F5ED30112107F1203
:1027C300D40112107F5CD40112107F8BD40112103C
:1027D3007FE8D40112107F1DD50112107F49D50166
:1027E30012107F57D50112107FA4D50112107F1448
:1027F300D60112107F5DD60112107FA9D6011210E7
:102803007FD5D60112107FE0D60112107FFED601CC
:1028130012107FE9D70112107FF3D70112107F2E18
:10282300D80112107F3ED80112107F47D801121031
:102833007F9BD80112107FAFD80112107FDED90120
:1028430012107FF5D90112107F0ADA0112107F9856
:10285300DA0112107FDDDA0112107F69DB01121039
:102863007F74DB0112107FB6DC0112107FD1DC0113
:1028730012107F1DDD0112107F8CDD0112107FC548
:10288300DD0112107FDFDD0112107F21DE01121046
:102893007FF1E00112107F9EE10112107F0BE20134
:1028A30012107F4BE40112107F63E40112107F6664
:1028B300E40112107F72E40112107F86E40112100A
:1028C3007F8EE40112107FC1E40112107FC3E50182
:1028D30012107F4AE60112107FBAE60112107F3C04
:1028E300E70112107FFDE70112107F1CE8011210AF
:1028F3007FBDE80112107F1AE90112107F1DE90163
:1029030012107F4AE90112107F5FE90112107FD391
:10291300E90112107F22EB0112107F28EC01121043
:102923007FB3EC0112107FCEED0112107F96EE0102
:1029330012107FC7EE0112107FEAEE0112107FF32F
:10294300EE0112107F22EF0112107FB2EF0112107D
:102953007F68F00112107FDDF00112107F84F10116
:1029630012107FF9F10112107F30F20112107F6E05
:10297300F20112107FA4F20112107F27D702121066
:102983007FAC900412107F56900412107F42900483
:1029930012107FA18F0412107FA58E0412107FCF17
:1029A3008D0412107FD88B0412107F2B8B0412100E
:1029B3007FBD8A0412107FC3B00312107FB9B00326
:1029C30012107F74F00312107FE0D30212107F4EB7
:1029D300B00312107FA2AE0312107F7ED202121038
:1029E3007F3DD20212107F60AE0312107F80AD03D1
:1029F30012107F6AAD0312107F2BAD0312107F8676
:102A0300AC0312107F80A90312107F6EA70312106C
:102A13007F3BA70312107FD6A60312107F69A6037C
:102A230012107F28A60312107F61A50312107FFCEA
:102A3300A40312107FA7A40312107F4AA403121049
:102A43007F21A30312107FBEA20312107F08A203EB
:102A530012107F03A20312107FF7A10312107FAAA3
:102A63009E0312107F849E0312107F1ED202121047
:102A73007FEBD10212107FD6D10212107FABD102AD
:102A830012107F37940412107FFF930412107FA853
:102A9300930412107F299E0312107FD49D031210FA
:102AA3007F959D0312107F829D0312107F11920464
:102AB30012107F779D0312107F539D0312107F62C4
:102AC3009B0312107FE19A0312107F76FE0312100C
:102AD3007F9D9A0312107F53910412107F719A0302
:102AE30012107F5F8A0412107F218A0412107FF470
:102AF300890412107FC0890412107F5F89041210A9
:102B03007F47890412107F23890412107FEC850408
:102B130012107FB8830412107F9F810412107F2E3E
:102B2300810412107FDD800412107F97800412103D
:102B33007F00800412107F1EC20300000080FBE4AC
:102B4300738F000100041887000100021835000488
:102B530000CB1725000200CF1726000200D117274C
:102B6300000200D31728000100DD1729000100DE51
:102B7300178400040042158600010062172A000131
:102B830000DF172B000100E0172C000100E4172DD4
:102B93000008004E152E000100E5172F000100E686
:102BA3001730000100E71731000100E81732000178
:102BB30000561533000100571534000100E917369C
:102BC300000100581538000100EA1739000100E33D
:102BD30017830002000018630001006415640001FC
:102BE30000E11765000100E2176D00010065157132
:102BF300000800461566000100FF1743000100F0BE
:102C03001744000200F11745000100F317460002C4
:102C130000F417470008005C1548000100F6174B45
:102C2300000100F717040001000318A100010007C9
:102C3300183700010006188800010005183C000140
:102C43000059153D000100EB1749000200F8176712
:102C530000010066154D000200FA174E000100FC4A
:102C6300174F000200FD173E000100EF175100014E
:102C7300005A1552000100ED1753000100EE1754DE
:102C83000001005B15000000000000000136360162
:102C93000100010201000103010001040106060510
:102CA300020000070100340801000F090401010DAF
:102CB3000100FF0E08000017020000190100FF1AAF
:102CC3000100011B0100FE1C0100081D0200001F82
:102CD30001000120010001210200002301000F2453
:102CE3000200002601000127010008280200FF2A34
:102CF3000100072B0102402C0100002D0100012ED1
:102D03000100012F0100FF30010B1D310800003AC3
:102D13000100083B01000F3C0100013D0100FF3EA3
:102D230004000042040000460400004A0400004E70
:102D330004000052040000560400005A040000007E
:102D430000010020011D890000020020011E8900EE
:102D530000030020011A89000000002001198900E6
:102D63000004004201B387000005004201268700EA
:102D730000070030011B890000FDFF2101158900B8
:102D83000006004201B486000000404201B48601FF
:102D930000200020056A170100210020056B1701A0
:102DA30000000221056C1700040000210533140202
:102DB30004000029052B140304000029052D140326
:102DC30004100029052F140304140028058C17058B
:102DD3000400002105311401037103010301030100
:102DE3000301030103220302030103100300030091
:102DF3000300030003000300030003420300032452
:102E0300030603000300030403120325032303251E
:102E13000323030403040300030003000344030028
:102E2300030003230300036503210035038103002B
:102E33000305030003000300030003250323030129
:102E430001710101010101110101013101010101BF
:102E5300018001100161013B0014006301730172E1
:102E630001620143010001130106013D0135000424
:102E730001120100010001000100010401040133FA
:102E83000133013C014401320136000001000165B8
:102E93000100013500810100010501820183010068
:102EA3000103007100300160001100700031022045
:102EB30003500480001000610000001400630073DD
:102EC30000720062004300000013000600000000CF
:102ED30000040012000000000000000000040004D1
:102EE30000370037003C02440000000000000000EF
:102EF300006500000035008100000005000000832C
:102F0300000000030271023001600211027002012D
:102F130002020202028002100261023A00410063CF
:102F230002730272026202430200021302380000BB
:102F33000200020402120200020002000200020464
:102F4300020402370037003C024402000239000049
:102F530002000265020002350281020002050282BC
:102F6300028302000236000100060000000F000089
:102F7300000000000000000000000003FFFF00004D
:102F83000403FFFF0000FFFF0FF4010005C4040367
:102F930020000100000B00000000000000000301FE
:102FA3000F0000000000000000000000000000000F
:102FB300000000000000000000000000000000000E
:102FC3000000008B1CB51C911CC51B971CBB1C97D8
:102FD3001CC71C9D1CC51B971CBB1CA31CC51B002D
:102FE300000000A91CC51B0000000000000000AF8A
:102FF3001CC51B00000000000000000000000000D2
:1030030000000000000000000000000000000000BD
:1030130000000000000000000000000000000000AD
:1030230000F51E0100F51E02006B1E0280651E03E3
:1030330000711E0400771E04807D1E0500831E069A
:10304300008F1E3100A11E3300A71E3400AD1EFFEA
:10305300FF000006040000180538140604010030C0
:103063000539140604100021238D170604110021CD
:10307300238F17030003000400080010001F003E05
:10308300007B00F600EC01D703AF075D0FB91E719B
:103093003D000007ECFDFDFDECDCDCCCBCACAC9CE6
:1030A3009C8C7C7C6C6C5C5C5C4C4C3C3C2C2C1C8D
:1030B3001C03EAF5E5D5D5C5B5A595958585757543
:1030C300656555554545353525251515050A0725E6
:1030D30002D12405DD2407D7240CB9240DC524FF10
:1030E300000000160F00000B150B020002220F3325
:1030F30000000E0FD0D1D2D3D4D5D6D7D8D9DADBAE
:10310300DCDDDEDF5A6967426565416C6C69616EBF
:1031130063653039303016181920231A1C1E30000D
:10312300034D4C4651181A250502000119161816AD
:103133001618230300303017181921301B1D1F30B8
:10314300003C40423A3F3F392F47300C0E020B04FC
:103153000B0A0708000F020402010101010902061C
:103163000000001005371400BE040AE80300000342
:10317300000100E8032400041E0901130403101EC8
:10318300030A0C040F0828020C05081505FFC0826A
:10319300C0831214AB90159174A9F0A37422F0901C
:1031A300159374AFF0A37422F090159574B5F0A342
:1031B3007422F090159774BBF0A37422F0025ECCD6
:1031C30074F7120AFB901585E4F0E9901584F07CFE
:1031D3005C7D157A867B15121B9B9017F6E0901584
:1031E3008EF090158F7446F0A3741502415974F054
:1031F300120AFBEAFEEBFF54807003023362901560
:10320300841241EE700302335BEA241B125A597095
:103213007CEA241F125A5964137002A3E0706E8A69
:10322300828B831233B090159F124FEB750A007592
:103233000B00800D12402F1270CB121A9FAA0EABF7
:103243000FEA4B60488A828B83E0650C7004A3E02D
:10325300650D702C8A828B83A3A3A3A3E0F50EA331
:10326300E0F50FE50A450B8A828B83A3A3A3A36032
:10327300C3124331850A82850B83A3A3A3A380B71B
:103283008A0A8B0B8A828B83124FE780B4E508246A
:103293002A125A59FCE5082402F8E43509F9E8FA38
:1032A300E9FB90159F123497A3A3E06402703C8A54
:1032B300828B83124FEB800B88828983A3A3A3A302
:1032C300124331E849601F88828983E06A7003A34F
:1032D300E06B70E488828983A3A3E06C70DA9017B3
:1032E300FC125D89806BECF91222E5850882850961
:1032F30083E06401704FE50824181233991210D843
:10330300126673120EF7E50824121233991210D8BD
:10331300E5081241E21210D4E508240B1266771275
:103323000EFBE508241712417FE5082402FCE4356F
:1033330009FDE5082419FAE43509FB122B19740A6F
:103343001210E7800CE064027007AA08AB0912238D
:10335300C3AA08AB09121A09EEFAEF6480802DEABA
:103363005402600C9018577401F0EA6402FA802347
:10337300EA5408601A1222DFEA4B700B9015A1126F
:10338300654E7A081233A6EE6408FAEFFB80047ADE
:10339300007B00026CFDF582E43509F583E0F50A54
:1033A300780A22FB901584E0F9121B6B22A3A3E099
:1033B300F50CA3E0F50D227B00901584E0F9121BB8
:1033C3005F74042274F4120AFB8A088B098A828BC5
:1033D30083A3A3A3124DE312418A38F583E02409A2
:1033E300FA126C95700302348A8A828B83740212F8
:1033F3004E58850882850983123497E8F0A3E912B1
:10340300690F8A828B83A3A3A3A3A3A3A3A3F0E53A
:10341300082403F8E4350912348C12418A3AF583FF
:10342300E08E828B83A3A3A3A3F0EE2409FAE43FE7
:10343300FB8E828F83A3A312603BF5838882E0A275
:10344300E58E828F83A3A3A3A3A3500474018001F9
:10345300E4F0E5082403F5828983124FEBEA125561
:103463006C3BF583126C5C1210D01241893B1261E4
:103473002D8E828F83A3A3127E0B1210E7EEFAEF39
:10348300FB901584126CE28016F98882F583E0FACA
:10349300A3E0CA22125188A3A32274021210E77F69
:1034A30004020E2C74F2120AFB8A088B09ECFAED63
:1034B300FB740E1213D8E0FC1214E18A0C8B0DAED0
:1034C3000CAF0DEA4F6030AC08AD091214CFE960C0
:1034D30026AC08AD09EEFAEFFB1214D5E970148E91
:1034E300828F8312431EFAEFFB1214C9AA08AB0999
:1034F3001214F97900800279B40250D774F0120AD9
:10350300FB74F612117BEAFEEBFF8C088D09750F35
:10351300B3852182852283E4F0750E008002050EB7
:1035230090318FE493F8E50EC3984003023626AA40
:103533000E7B0012151D8A0A8B0BEA4B60E08A8210
:103543008B83A3A312362D28F0F8C3EE98EF9400D3
:1035530050CC7C157D007900AA08AB091219F185BE
:103563000A82850B83A3A3A3A3127108E0F8EEC319
:10357300982925E0F8E433F9E50A28F582E50B39C3
:10358300F583A3A3A3A3A3A3124194A3125BB08ABD
:103593000C8B0DAC0CAD0DAA08AB09121B9B850A55
:1035A30082850B83A3E06401700A126673740112AF
:1035B30041A680447401121145850A82850B83124A
:1035C3004FE9121505E9603D74091213D8E0C0E014
:1035D300126673D0E0F074091213D8E06403701319
:1035E3007401121145E508240BFAE43509FB121B9B
:1035F3009B801274011213D8124331E508125B96B3
:1036030035091270C9850A82850B8312667F1241C0
:10361300A6A3A3E0C0E0E5082414126677D0E0F087
:10362300750F00A90F740A026CFAA3A3A3E0F8852F
:103633002182852283E02274F7120AFBE9FE8A8243
:103643008B83A3A3A3A3A3A3E0540860338A828B31
:1036530083A3A3A3A3A3A3E0540260218A828B8341
:10366300A3A3A3A3A3A3A3A3A3E06406600F74E986
:103673006E600A74CD6E600574F06E70031222C71B
:103683000249D674F0120AFB74EF12117B740F1205
:1036930013D812643274081213D8E9F0ECFEEDFF6C
:1036A30074051213D812479E1249C2A3E0F91214EB
:1036B300ED74061213D812643274061213D812551D
:1036C300FD70030239411241CEE0FA74061213D899
:1036D300E0F91222071239A1F8A3E0F9E8497003CF
:1036E300023941EE2403F50AE43FF50BEE2406F517
:1036F30008E43FF5097C00850882F583124FEB85CA
:103703000A82850B83E0F91214F374031213D8129F
:103713006432850A82850B83E0C0E085218285229D
:103723008312399AD0E0125712F9852182852283B8
:10373300124036125264123630FAA3E0CA2407F557
:1037430082E43AF583E8F0A3E412643D2406F582AB
:10375300E438F583E41270D5124DD71210D0EE126F
:10376300418A3F12612D74031213D8124DE32409C9
:10377300127E051210E774291213D8127102123443
:10378300911257253A1270C9742B1213D8E0C0E076
:103793008521828522831255C4D0E0F0740212136E
:1037A300D8E4F074251213D87808121363023898FA
:1037B30074031213D81260F58882F583123989A332
:1037C300A3A3125BBBFB12150B850E82850F83A38C
:1037D300EAF0A3EBF074031213D812399AA3123947
:1037E30089125DCAA2E6500F850E82850F83A3A3BB
:1037F300A3A3A3E0D2E1F074051213D8E0706B85A4
:103803000E82850F83A31243319015DFE0687003A6
:10381300A3E0697055850E82850F83A3A3A312418C
:1038230069750C00780C1210D878081210CC742922
:103833001213D8E0F50C780C1210D874271213D891
:10384300120EFB9015EC120EFB790074191213D8AB
:10385300124FBB12240B740A1210E7850E82850FD8
:1038630083A3A3A3A3A3E04405F074021213D8E037
:1038730004FC8E828F83124FE58E828F83A3A3A3D2
:10388300E0F91214F374031213D81264327402129F
:1038930013D8E004F074031213D81255FD60677453
:1038A300021213D8E0FA74061213D8124331C3EA92
:1038B30098E499505174021213D8123C73852182F3
:1038C300852283E028F8A3E039F9E8240FF50EE414
:1038D30039F50F850E82F583E4F074031213D812C1
:1038E3003994640160030237B374051213D8740169
:1038F300126CE8F074031213D8125EBC123C96E803
:10390300F0A3E90237D7852182852283124FEB1278
:10391300220D852182852283120EFB74261213D871
:10392300E0FD74251213D8E0FC740A1213D8E0F9F1
:10393300EEFAEFFB1222C174021210E780438E826B
:103943008F83A3A3A3E0C0E0740C1213D8D0E0F0DC
:10395300126B51E0C0E0740D1213D8D0E0F074067E
:103963001213D81255FD7009740E1213D874B9804E
:1039730007740E1213D87410F0740912113D122437
:10398300057411026CFAE0850E82850F83A3A3A34D
:1039930022E01256EAE022E01256EAA3A32285218E
:1039A30082852283EAF0A3EB1256062274F0120AF0
:1039B300FB74E112117B74041213D8E9F07403123F
:1039C30013D8ECF074021213D8EDF08A0E8B0F7437
:1039D3002F1213D81233B2AA0CFB1221FB7401125B
:1039E30013D8E9F0AA0CAB0D12220174011213D8FB
:1039F300E07003023C6E852182852283E480158E6C
:103A0300828F83A3A3A3A3A3E0D2E3F085218285BE
:103A13002283E004126C40F8852182852283E0C36F
:103A2300984003023C6574011213D8E07003023C12
:103A330065852182852283123C73E50C28F8E50D08
:103A430039F9E8240FFEE439FF8E82F583A3A3A39B
:103A5300A3A3E0A2E040B5750800750A08750B0042
:103A630074021213D8E060037508207C087D007986
:103A730000740512113D1219F18E828F83E0603EAE
:103A830090162FE06401701AE508D2E3F508750B70
:103A930010123C831213D8E8F0A3E9125AAE74FF54
:103AA300807643080C750A0C8E828F83A3123C8E9A
:103AB3001270CB74051213D874FFF0A3805A7404E8
:103AC3001213D8E06009E508D2E6F508750A0A8EF4
:103AD300828F83A3E064FE7003A3E0F4703074125A
:103AE3001213D8740412669DF8741D1213D8E812C9
:103AF3004E58741212113D1221297D007C00790069
:103B030074151213D8AA82AB83121EDD800B123CEC
:103B1300831213D8E8F0A3E9F074071213D8E50869
:103B2300F01241C5C0E074091213D8D0E0F0740A52
:103B33001213D87401F0740512113D1223C97411C4
:103B43001213D8E06003023C43740D1213D81257CA
:103B53000D8E828F83A3A3A3A3F0740D1213D81227
:103B63004E26E50AF0A3E50BF074031213D8E0C068
:103B7300E0124DB7D0E0125DCA601190162FE0C07D
:103B8300E0740D1213D8124E01D0E0F0740D12132D
:103B9300D8124331850C82850D83A3A3A3A3A3125B
:103BA3003C7C241C12642C1270E5123C7E125D7C5A
:103BB30039126B70C0E0124D9ED0E0126C35C0E03C
:103BC300740D1213D81248E4D0E0126936C0E074C1
:103BD3000D1213D81248DAD0E0F0740D1213D81274
:103BE3003C8E123C7C242A12642C850E82850F8322
:103BF300A3A3A3A3A3A3A3A3E01264251241B4C068
:103C0300E01248C6D0E0F0740D1213D8124FEB85C2
:103C13000E82850F83126C4B2428F582E43B1270CD
:103C2300C91241BD126C5C1210D0126126EA1263F4
:103C3300BE3B127E091210E7740512113D1223CF09
:103C43008E828F83A3A3A3A3A3E0D2E0F074111207
:103C530013D8E06003023A0274011213D8E014028D
:103C63003A0E7900AA0CAB0D1222CD741F026CFA26
:103C7300E075F007A4F8A9F022A3A3124FEFE822FE
:103C83008E828F83A3124335740522E0123C96A3E0
:103C9300A3A322F8A3E0F9850E82850F83A32274E0
:103CA300F0120AFB74E812117BE9852182852283D5
:103CB300F08A0E8B0F8A828B83A3A3A3A3A3A3A350
:103CC300A3E0F91222258A088B09EA4B7003023D0F
:103CD3007FE50E1255801241DD12417485218285E4
:103CE3002283E06003023D827C04850E82850F837C
:103CF300A3A3A3A3A3A3A3A3E0F912222BEE4F60D4
:103D03007B8E828F83A3A3A3A31243317407121361
:103D1300D812656312433174091213D8124E88C046
:103D2300E074111213D8D0E0126914A3A3A3A3A3C0
:103D3300A3A3124331740F1213D81270CB7412124F
:103D430013D8E4126CF0C8241FF582E438F583120B
:103D530060F1C413135403FC70027C048E828F83BE
:103D6300E0F978081210D4742059FD744059F9749D
:103D73000312113D1222C174021210E7026CF87C87
:103D830008850E82850F83A3A3A3A3A3A3A3A3E004
:103D9300F912222B8B0BEA4B7003023D00EE4F60AE
:103DA300DB852182852283E0F50C780C1210D885FF
:103DB3000882850983A3A3A3A3A3A3A3E0F50C7897
:103DC3000C1210D88A828B83A3A3A3E0FB8A82857B
:103DD3000B831279288A82850B83E0FA8E828F8384
:103DE300A3A3E0F9122B1F74021210E7023D04741F
:103DF300F7120AFB74FA12117BE9FE780179017F4D
:103E030000800379000F125167E0FCEFC39C50263A
:103E1300EF75F007A4FC85F008AD08EA2CFCEB3D38
:103E2300FD124756E0A2E050DA540C60D6E0A2E25D
:103E330050D3780080CF8A828B83A3A3A3A3A3A3A9
:103E4300E0703DE9A2E0400574016E70338A828B15
:103E530083A3A3A3A3A3A37401124146E0C0E07408
:103E6300031213D8D0E01247B5E0C0E07404121374
:103E7300D8D0E0F074051213D8E81260901224052C
:103E830074060249D3C082C08379011222CD025E37
:103E9300CC74F4120AFBEA4B9018576019E4F08AC9
:103EA300088B09F50AF50B78081210CC7A02123345
:103EB300BA1210E7800A7401F07A027B001233A76A
:103EC3000234A274F0120AFB74F312117B7403120E
:103ED30013D8E4F0A3F090159F12417474011213E8
:103EE300D8E4F0A3124E5D04F09015D9E0A2E3509C
:103EF30003023FB912413A74091213D812139D7485
:103F0300091213D878081213639015A178081211B7
:103F13004D74051213D8780812137212403D7405BC
:103F23001213D8780812131550077A017B00024048
:103F33002A74051213D8780C1213639017FBE0F55B
:103F430009780C7908120A8CA80CA90D9017FCE0CB
:103F5300C398E4995003E08001E885218285228398
:103F6300F074091213D87808121363C008C009C08B
:103F73000AC00B74051213D8780C12136312403D58
:103F8300780C7908120A8CE4F50AF50BD00FD00EE1
:103F9300D00DD00C780C790812120D9015A1780C65
:103FA300121372801112402F1270CBEEFAEFFB1234
:103FB3001A9FAE08AF09EE4F60658E828F8312366B
:103FC3002DC398502DEE2403F8E43FF9E0FA8882DC
:103FD3008983E0C39AF0602374031213D8124497C1
:103FE30074011213D8EEF0A3EF12657EFEA3E0FF77
:103FF30080C48E828F83A3A3A3E4F08E828F831267
:104003007DC274011213D81255FD8E828F83A3A330
:10401300A3A360911265571213D812403680897496
:10402300031213D8124FEB740D026CFA124335903E
:10403300159F2212611CA3A3A3229017FA127DCA13
:10404300E4F50AF50B2274F0120AFB8A088B09893E
:104053000A7800790090159F124174FBEE4B601EA5
:10406300088E828F83A3A3A3A3124FB5601008E821
:104073007001098E828F83124170EA4F70E39017AB
:10408300FD124FEBC3E89AE99B400302412D7A06E8
:10409300124130A80CA90DEA49700302412D8A820E
:1040A3008B83E508F0A3E50912414FE50AF0901769
:1040B300FC12516F124146A3E4F0A3F090159F1236
:1040C3004FB5600D8E828F83A3A3A3A31270CB8001
:1040D3001790159F1270CB9015D9E0A2E3400912F7
:1040E300413A9015A112139D9015D9E0A2E3503ADD
:1040F3007A087B00901584E0F9121B71EA4B4C4D52
:1041030070289017FAE0F508A3E085080CF50DE494
:10411300F50EF50F780C1210CC7A087B00901584FD
:10412300E0F9121B6574041210E7026CFD7B0012A8
:104133001A998A0C8B0D22121B83EAF8EBF9ECFA1D
:10414300EDFB2212414A2212414FA322F08A828BB5
:1041530083A3A322E508F00249D6F08E828F83A3BE
:10416300A3A3A3A3A322125A67A3A3F022A3A3A3E7
:10417300A3E0FEA3E0FF227F05020E2CF582E435C7
:1041830009F583E0F922EA12418E222410F582E434
:104193002212419CA3A3A3A322124339850882853B
:1041A3000983221241AA22F0850A82850B83A3A3E5
:1041B30022E50E24111241DAE022E50E240E12410B
:1041C300DA22E50E24101241DAE0221241D222EE65
:1041D30012418E3FF58322F582E4350FF5832224C5
:1041E3000FF50AE43509F50B780A22E0F9121A1BD8
:1041F3008A088B09EA4B2274F2120AFB890B8A089C
:104203008B098A828B83124FEB1222F1EA4B6004F3
:1042130079B8806A1222FDE9F8903181E493F9E8D4
:10422300C399400479B280567A15124130AE0CAF6F
:104233000DEA4F7004791080458A828B83E4F0A3E2
:1042430012414FE50BF0750A0078081210D07C126A
:104253007D00EA2403126C071210E79015A512558E
:10426300FD70089015A5800C124331888289831252
:10427300428470F4EEF0A3EFF012230F79000250A2
:10428300D7124FEFEA4B8882898322C082C0839082
:1042930015A580048C828D83127929EC4D60288CBE
:1042A300828D83A3A3E069600574FF6970E68C8245
:1042B3008D83A3A3A3E06A7003A3E06B70D6EC2401
:1042C30003FAE43DFB80047A007B00025ECC74F7C2
:1042D300120AFBE9FD74FE6D70047C0180027C0010
:1042E3009015A580096D70027C018882898312551F
:1042F300FD601F88828983A3A3A3E06A7003A3E000
:104303006B70E7ECA2E088828983A3A3E050D6F91F
:10431300800279FE0249D6EEF9800CA3A3127DCA6E
:10432300EE2274021210E77F02020E2CF583124371
:10433300352212433922E0F8A3E0F9221243398EE1
:10434300828F83221210E77F03020E2CC082C08368
:1043530079009015A5800109E0FAA3E08A82F5832C
:10436300E582458370F1025ECC74F6120AFBE4F534
:1043730008F50978081210D4903181E49375F0138D
:10438300A4A9F012448C1271291210E7E9FE7409F2
:104393006E700312230902431A74F6120AFB74FEA9
:1043A30012117B852182852283E4F0A3F0A821A941
:1043B300228808890978081210D475080275090043
:1043C30078081210D4126D9A1210E702432574F57F
:1043D300120AFB74EB12117B852182852283E4F0A0
:1043E300A3F09015A580748E828F83A3A3E0C0E011
:1043F30074021213D8D0E0125AAEA982AA83890894
:104403008A09750A0078081210D07C127D007406A0
:104413001213D81270EE1210E774021211358808C5
:10442300890978081210D4750813750900780812E1
:1044330010D474041213D81255A075F013A4F8AA5B
:10444300F075F013E9124488126DA21210E785216A
:10445300828522831244978E828F83124174EE4F9A
:104463007085A821A9228808890978081210D475B3
:10447300080275090078081210D4126D9A1210E719
:104483007415024347A42AF9E82402FCE439FD7AAF
:10449300427B0022E02401F0A3E03400F02274F414
:1044A300120AFB74EB12117B7E007F00A821A92264
:1044B3008808890978081210D47508028E097808CB
:1044C3001210D47C007D007A421271351210E7E994
:1044D300706C8E0880567402121135880A890B7825
:1044E3000A1210D4750A13750B00780A1210D4E55A
:1044F3000875F013A4F8AAF075F013E509124488BF
:104503001271371210E7E9701B74031213D8AA82D1
:10451300AB8374021213D8E0F91222EBE970050E93
:10452300EE70010F0508E5087002050985218285F3
:104533002283124331C3E50898E509994098EEFABE
:10454300EFFB741502349F74F6120AFB8C828D8381
:10455300A3A31247A3F0EA1263C43BF583E0C0E0D0
:10456300124760D0E0F0EA241DF582E43B12432FAA
:1045730012474412479EF0A3F0EA241FF582E43B5E
:10458300F583124174EC1247373DF583EEF0A3EF48
:10459300F012473D3BF58312476EA3A3A3A3A3A346
:1045A300EEF0A3EF12601FFE8C828D831247AD7471
:1045B300035EFEC39403400302472AEE60087402BD
:1045C3006E600302464F8C828D83E0540CFE740CA4
:1045D3006E700302468EE0A2E4400D88828983E078
:1045E3008C828D83A31247C374086E600302468EC8
:1045F30012474E7401F08A828B83A3A3A3A3A31251
:104603005A7470148C828D83E0440C1247B5A3A3B3
:1046130012476EEEF0A3EFF08C828D83E0A2E440AC
:104623002B888212477C124791500109F582124769
:104633007CA3A3A3A3A3A3F0A3EF1247BD8C828DF6
:1046430083A3A3A3F0E82403F85001098882898394
:10465300E0C0E0EC2411F582E43DF583D0E012479D
:10466300AD8C828D83E0A2E7507588828983E0FE5A
:104673008C828D831247C374FC5E700C8C828D8395
:10468300A3E054036403701E02472A12474EE4F06A
:10469300740C6E60030245F98882124782124791B7
:1046A30050010902461B8C828D83A3E054036032C0
:1046B30088828983E0C0E0EC1247683DF583D0E04F
:1046C3001247C48C828D83E0540364027014888281
:1046D3008983E0C0E0124756D0E01247C48003A3A9
:1046E300E4F0EC12556C3D1270C9EC2410FEE43D6D
:1046F300FFEA241DF582E43BF583E0F5088E828F03
:1047030083E0C3982508F508F0EA2417F8E43BF999
:104713008882F583E0C39508C0E0124744D0E012D5
:10472300601FC39508500A124744E4F0124760E43F
:10473300F002432A2415F582E422EA240DF582E4EB
:1047430022EC240DF582E43DF58322EC1257253D3E
:10475300F58322EC2414F582E43DF58322EC124127
:104763008E3DF583222413F582E422E0FEA3E0FFCD
:104773008C828D83A3A3A3A322124782A3A322899E
:1047830083E0F508A3E0FFE5088C828D8322A3A3D1
:10479300A3A3F0A3EFF0E82402F8221247A3A32275
:1047A300E4F08C828D83A3A3A3221247CBA882A912
:1047B300832212414AA3A3A3A3221247CBA3E0223D
:1047C300A31247CB08A98322126028A32274F412F0
:1047D3000AFB74F312117B8A0A8B0BECFEEDFF8C40
:1047E30082F583E0540CF508E0A2E75006E508D211
:1047F300E7F508E508D2E1F508125A747006E508F2
:10480300D2E4F508E0A2E55006E508D2E5F5087C18
:10481300087D007900AA21AB221219F17402121348
:10482300D8E5081270CFC0E074031213D8D0E01299
:104833004E5DE50AF0A3E50BF074051213D8126977
:104843003B1213D8E0707774081213D8124DE31299
:10485300601138126956C0E074081213D81248E484
:10486300D0E0126936C0E074081213D81248DAD0C7
:10487300E0F074081213D81248D0E0124E0B124E17
:104883008C126425EE2411125A40C0E01248C6D09F
:10489300E0F0EE2414125A40C0E074081213D81248
:1048A3004DE32435F582E438F583D0E0124E30C071
:1048B300E074081213D8124DE7D0E012668F740D1E
:1048C30002349FE82432F582E439F5832212433F10
:1048D300A3A3A3A3A3A322124DF7126B3538F58329
:1048E30022124DF72426F582E438F5832274F71259
:1048F3000AFB7E008A828B83A3A3A3A3A3A3A3A300
:10490300A3E0640460030249B212571DE06003028E
:1049130049B212557F3B1255FB70030249B288829C
:104923008983E0540360030249B2E812572539F53D
:1049330083E0FA8C828D83A3A3E0FBA3E0CB241155
:10494300F582E43BF583E06A706588828983A3A3DB
:10495300A3A3A3A3A3A3A31249B6E06A7003A3E08E
:104963006B704C88828983A3A31249C2E0FFA3E042
:10497300CF2406125A406A7003A3E06B7031888219
:104983008983A3A3E0F88C828D83A3A3E0F9A3E03A
:10499300F5838982A3A3E06860138C828D83A3A32C
:1049A300A3E0F5838982E0540C640470027E01EE77
:1049B300F980201249BA22124FF38C828D8322A3ED
:1049C300A31249BAA3A322740C1213D8E0F9740DED
:1049D3001210E77F01020E2C74F6120AFB74FC120C
:1049E300117BEAFEEBFFECFAEDFB8C82F583A3E08F
:1049F3005403601690159B1255FD60597900EEFC27
:104A0300EFFD12621C122B42804B8521828522838B
:104A1300EEF0A3EFF074021213D8124E52AC21AD94
:104A2300227A277B2312254F8A088B09A808A90914
:104A3300EA4960218A828B83A3A3A3A3A3A3A3A38D
:104A4300A37406F07A0088828B83124DE31263E528
:104A5300E0F91224AD740402432774F2120AFB74C2
:104A6300F312117BEAFEEBFF8A82F583A3A3A3A3D0
:104A7300A3A3A3A3A3A3E0F50A901857E0700579B5
:104A8300BA024D9B750801750900750C00750D0080
:104A93007C087D007900AA21AB221219F17405125A
:104AA30013D87401124E655404601274021213D8A1
:104AB300E0D2E6124E6554087003750803E0541003
:104AC300600674404508F508E05408602274021239
:104AD30013D8E044C0124E655420600A74031213C5
:104AE300D8E0D2E0800874031213D8E0D2E1F0EEEC
:104AF3002415125A40124DCB700374016970067469
:104B0300084508F5088E828F83A3A3A3A3A3A3A3B9
:104B1300A3E070161225A9852182852283126432AF
:104B230074021213D8E0D2E28030640F7010740262
:104B33001213D8124E6D74044508F508807F8E82D7
:104B43008F83A3A3A3A3A3A3A3A3E064028E828F53
:104B530083700A127102E8F0A3E9F08060A3A3A3B3
:104B6300A3A3A3A3A3E06403700DAC21AD22EEFACB
:104B7300EFFB12235D80468E828F83A3A3A3A3A39F
:104B8300A3A3A3E06401703590162FE060107402B4
:104B93001213D8124E6D750910750AFF801874022E
:104BA3001213D8E0440C124E5D74FDF0A374FFF0B1
:104BB30074044508F5088E828F831233B2EE2415F0
:104BC300125A40A2E0503F74021213D8E0540C7002
:104BD3001B8E828F83124FEB121FA9E9700579BBDD
:104BE300024D9B74021213D8E0D2E5F0EE241512A5
:104BF3005A40A2E0501074021213D8E0540C64041B
:104C03007004E0D2E5F0EE2411125A40C0E07404BF
:104C13001213D8D0E012693D1213D8E06003024D9D
:104C23009474081213D8124E26E508F0A3E509F090
:104C3300124DC1E0C0E0124DB7D0E0F0124DA8E034
:104C4300C0E074081213D8124DE312476838F58395
:104C5300D0E0124E8C6401701190162FE0C0E07406
:104C6300081213D8124E01D0E0F074081213D812B0
:104C73004E21124DB2FAE8241CF582E439F583EA99
:104C8300124E58EE2415FAE43FFB8A82F58312791B
:104C930029E8125D7C39F583124E52EE241C125A18
:104CA30040C0E0124D9ED0E0125EC2124DCB7003A5
:104CB300740169701374081213D812570DFAEE2495
:104CC3001D125A40F91222318E828F83A3A3A3A30C
:104CD300A3A3A3A3A3E0C0E074081213D81248E46B
:104CE300D0E0F074081213D81248DAE50AF0740819
:104CF3001213D81255A02428F582E439F583E50C64
:104D0300F0A3E50D124E38124E0B125AB912642558
:104D1300EE124DB2C0E0E82433F582E439F583D0D6
:104D2300E0F0EE241B125A40C0E074081213D812AC
:104D33004DE7D0E0F0EE241A125A40C0E074081296
:104D430013D8124DE32432F582E438F583D0E01210
:104D53004E30124DD71210D0126B3B127929740BBF
:104D63001213D8124DE3242F127E051210E7EE24FE
:104D730015125A40544060129015BB1255FD600A3B
:104D8300AA21AB2212621C122B42AA21AB221223AC
:104D9300CF740C1213D8E0F90250D2E82420F58224
:104DA300E439F58322EE2419F582E43FF5832212D8
:104DB3006B4AE022E82412F582E439F58322EE24DB
:104DC30018F582E43FF583225480F8A3E05401F9F7
:104DD30074806822F508A3E0F509750A00780822B3
:104DE300124DF722124DF72434F582E438F583226D
:104DF300A3A3A3A3124DFB22E0F8A3E0C822124D04
:104E0300F712473738F58322FAA3E0FBE8242AF5A3
:104E130082E439F583EAF0A3EB22A3A3A3A312430D
:104E230035EE221255A412558439F58322F0EE246F
:104E330013125AC122F0EE240D125AC122E0FC8A49
:104E4300828B83E02CFCA3E03400FD8A828B83EC0D
:104E5300F0A3EDF022F0A3E4F022F0852182852275
:104E63008322F0EE2415125AC122E0D2E3F0124E4F
:104E730075228E828F83124339852182852283E8AE
:104E8300F0A3E9F022E8F0A3E9126578E02274F7D1
:104E9300120AFB8A828B83A3E0640170047E638021
:104EA300027E648A828B83E060087905124EC524F2
:104EB300F3FE9015D7E06007F9124EC524F2FE0207
:104EC30049B2122477E9F8EEC3982274F6120AFB6A
:104ED30074FE12117B852182852283126432E9FEDE
:104EE300ECFAEDFB9005C21255FD6032A821A92210
:104EF3008808890978081210D47D01740E1213D81A
:104F0300E0FCEEF99005C2126406122B4274021201
:104F130010E7EA4B60047900800679B2800279B623
:104F230002432574F7120AFBE9FE9015911255FD11
:104F3300601F74091213D8E0F50878081210D8EE30
:104F4300F9901591126406122B4274011210E78036
:104F53000279B60249D674F7120AFB8908ECFEED12
:104F6300FF79B5E508245E602014600624F86034F8
:104F7300803D9005C4124FB56035127146122B4225
:104F83008E828F831264328024901593127929ECD8
:104F93004D601CEEFCEFFD901593126406122B423C
:104FA300E9F9800B90158F124FBB121B9B790002FE
:104FB30049D6124FEFEA4B2212792DEEFAEFFB227C
:104FC30074F7120AFBE9FE79B574AB6E700B90159A
:104FD3008F124FEB121B9B79000249D68E828F836F
:104FE300A3A3A3A3A3A3A3A3124FEF22124FF322BE
:104FF300E0FAA3E0FB2274F1120AFBEAFEEBFF8C5A
:105003000A8D0B7508019015DFE06E7003A3E06F46
:10501300700C1250C6AA0AAB0B121B9B805E1225A2
:10502300AFEE6A7002EF6B7009AA0AAB0B1225B5DB
:10503300804AAC0AAD0BEEFAEFFB122105E9F50845
:10504300901802E07036122A53E97030E508702C8C
:105053009015AFE06E7003A3E06F7020EE4F601CFD
:10506300750CA7750D15750E00780C1210D07C0801
:105073007D00AA0AAB0B1270F21210E7A908027A9C
:105083002574F2120AFBEAFEEBFF8C088D09750A00
:10509300011250C6EEFAEFFB121B95E96401701181
:1050A3009015DF1243318508828509831270CB8006
:1050B3000EAC08AD09EEFAEFFB12210BE9F50AA9D4
:1050C3000A80111225A38A0C8B0DAC0CAD0D227432
:1050D3000D1210E77F06020E2C74F6120AFBEAFE8D
:1050E300EBFF7A0D7B00121A99EA4B6062EE2424DF
:1050F300126DCFF0EE2425126DCFA3125194126DD1
:10510300D5A3A3126B6812516FF0EE1251551251D1
:1051130084E8F0A3E91251AB12517C1270CBEE126A
:10512300515E126C2BA3A3A3A3F0EE2433125A40B7
:10513300C0E0125167D0E012695A12517CA3A3A3B5
:10514300E8F0A3E91251A3C0E012571DD0E0F0022A
:10515300432A242AF582E43FF58322242EF582E4B0
:105163003FF58322EA125B963BF5832212517322A9
:10517300E08A828B83A3A3A322126C8AA3A3A3A393
:1051830022125188221243398A828B83A3A3A3A3B9
:1051930022F012519922EE2426F582E43FF5832270
:1051A300F0EE2432125AC122F0EE242C125AC122FC
:1051B30074F4120AFB74FE12117BECFEEDFFEC2477
:1051C30016125A4064057010EC2406FCE43FFD12ED
:1051D3002357E9700302525FAC21AD22126E841291
:1051E3001FAF8521828522831255FD606B8E828FCE
:1051F30083E064017058E875F009A4F8AAF075F02B
:1052030009E9A42AF9740628F8740339F9E8FAE9D4
:10521300FB8882F5837808121363EE12530112138D
:10522300154027852182852283124E21125A4E1260
:105233005264780812136390886178081212968A70
:10524300828B837808121372800A79A28010EE246D
:105253000F1270C57900800679A1800279C80234E3
:105263009D124E82EE126B562274F2120AFB8A0CC6
:105273008B0DECFEEDFFEC125A4EE4F0A3F0908898
:10528300217808121363EC1253011211916067EC39
:10529300240E125A47703478B39015D6E0702890D4
:1052A3001608E064017020EC2411125A40F912240C
:1052B3005F8B09A909EE1255803F126430EA4960F9
:1052C300047800800278A18808802EE060046402DC
:1052D300700A122369E9F5087007801DE064037002
:1052E30010EEFCEFFDAA0CAB0D121FD3E9F50880FD
:1052F300087508A180037508A3A9080250D7126B8B
:105303005678082274F0120AFB74F512117BEAFE38
:10531300EBFFEA240AFCE43F8C82F583127DC6127C
:10532300558A74031211458A828B83126226E970AF
:10533300030253F07401121145740312113D121F3D
:10534300AF74011213D81255FD70030253F0E875C0
:10535300F009A4F8AAF075F009E9A42AF97402285F
:10536300FC740339FDE508240E126677E4F0041299
:1053730013D8124331E50812558035091270C98CD0
:10538300828D831213C1E508241212667712139DCE
:1053930090886178081213638C828D8378081212C7
:1053A300A98C828D83780C1213639089017808127B
:1053B3001363780C7908120A8CE5084509450A45F8
:1053C3000B702A74011213D81255A075F009A4F8B2
:1053D300AAF075F009E9A42AF9740A28F58274037E
:1053E30039F5837401F07A007B081255AD8E828FF4
:1053F30083A3A3A3A3A3A3A3A3A3A3E02406FCA320
:10540300E03400FD8E828F83126226126948603E6B
:10541300EE240A125572124E267468124E58E81280
:10542300556C39F5837402F09015C11213C18C8247
:105433008D8312641F1260113CF58312139D9088B3
:105443006178081213639015C178081212A91255D6
:10545300E8705D90158F125598A3A3A3A3A3A3A3EC
:10546300A3A3A3126047121B95E970101260059065
:10547300158F126017700512694860348E828F830E
:10548300A3A3A3A3A3A3A3A3A3A3125598124FEB70
:10549300121FD9E960118E828F83A3A3A3A3A3A3B1
:1054A3001255D4E4F0A3F08E828F831255BAE4F040
:1054B3001255E860030255678E828F83A3A3A3A3CB
:1054C300A3A3127DC29015D6E0600302555C90162B
:1054D30008E06401600302555C750A3A750B0078B5
:1054E3000A1210D47402121135880A890B780A1231
:1054F30010D41273C11210E7E9705BE508240E1291
:1055030066777401125602C0E0E50824111266772B
:10551300D0E0F0E508240F126677743A124E5890E3
:1055230015BD1213C1E508241212667712139D905C
:10553300886178081213639015BD78081212A99038
:10554300886178081213639015BD78081211917061
:10555300081255A9800312558A1255E87006125F86
:105563000874A1F0740B026CFA240EF582E422F89D
:10557300E43FF9E8FCE9FD8882F58322EA125584C9
:1055830022240FF582E422E5081255843509F583B8
:10559300E4F0A3F02212792D8E828F83221255A478
:1055A30022124339E8227A007B02901466E0F91252
:1055B3001A45228A828B83A3A3A3A3A3A3A3A3A392
:1055C300A31255C822124DFB240EF582E438F5834D
:1055D30022A3A3A3A31255DC22124DFB240FF582B1
:1055E300E438F583228E828F83A3A3A3A3A3A312FC
:1055F3004DF3240FF582E438F5831255A4492212A2
:10560300560622F0852182852283E02274F6120A4F
:10561300FBEAFEEBFF7A237B00121A99EE240AF5CC
:1056230008E43FF5098508821264307C237D007904
:10563300001219F18508828509831255FD70030252
:1056430056D0EEFAEFFB1223751255E860748E8282
:105653008F8312570364018E828F83A3A3A3A3A313
:10566300A370071256F9740E80211255FD701012A3
:105673006948700B8E828F83A3A3E0A2E0500712C8
:1056830056EF740D80051256EF740512695A5403D0
:10569300640170071256D77405800B9015D7E0C0CC
:1056A300E01256D7D0E0125712F5838882125A6D52
:1056B300850882850983124DE31263C438F583E9B3
:1056C300800E8508828509831264A980031263EC26
:1056D300F002432A8E828F83A3A3A3A3A3A3A3A32E
:1056E300A3A31256E922E012640BA3228E828F83B6
:1056F300A3A3A3A3A3A3124DF31263CA38F5832272
:10570300A3A3A3A3A3A3A3A3A3A31255C8E02212F5
:10571300571622126E99F8A3E022EA1257253BF599
:105723008322240CF582E42274F1120AFB74E4123E
:10573300117B8A0C8B0D8C088D097A237B00121A3E
:10574300998A0A8B0BAE0AAF0BEA4F7003025A28F1
:105753001263D0E5082415125A59687003A3E0694F
:105763008E828F837004740280027401F0E5082432
:105773000DF8E43509F98882F583E0FAC3E49AFA6F
:1057830095E0FB125A552AFAA3E03BFB8E828F83E6
:10579300A3A3A3A312602E8E828F83A3A3F0EE2470
:1057A30020F582E43FF583E4F0EE2421F582E43F23
:1057B300F583E4F0EEFAEFFB1224298508828509CC
:1057C30083125A7470098E828F83A37405800690A6
:1057D30015D7125A62F0EE2417F50AE43FF50B8E43
:1057E300828F83125A6DE9850A82850B83F0EE243A
:1057F30016F8E43FF9E508240EFAE43509FB88823C
:105803008983124E40E5082410FAE43509FB850A22
:1058130082850B83E0FC88828983E0F88A828B830C
:10582300E0C398C39CF8125AAEF0EEFCEFFDAA0C4D
:10583300AB0D12236FE9F50B8E828F83E064027048
:1058430006126005125A32E50B6003025A1F750CEB
:1058530000750D00901802E064016005E0640270B9
:105863003F125A446008EE2421125A4770328E8246
:105873008F83A3A3A31263F2125A7AEE2416125A49
:1058830040125AA3FAE439FB124132EA4B60111277
:105893006C541210D0125A88AA0C1270F21210E72C
:1058A300EEFAEFFB122435E9F50B901802E06401E0
:1058B3006008E064026003025A12E97003025A129C
:1058C300E50C450D7003025A1F8003850E0B125A17
:1058D30044600BEE2421125A476003025A18850BC9
:1058E3000E850C08850D09750A0078081210D01270
:1058F3005A888E828F83A3A3A3A3127E0B1210E771
:10590300EE2420125A40600D125A4D7468124E58FC
:10591300EE24208015EE2421125A406015125A4DB0
:105923007403F0A37401F0EE2421F582E43FF583C0
:10593300E4F0EEFAEFFB122435E9F50B70907C13DB
:105943007D007900740912113D1219F1741A1213B2
:10595300D87401125AB964687002A3E0704F8E8242
:105963008F831255D4E0640560030258CE7C087916
:10597300FF8E828F83A3A3A3A3E0242A12604A127B
:105983001A7BE970030258CE7C087D0079FF74010D
:1059930012113D1219F174011211457A007B00793D
:1059A300AB12235174191213D874FC8015125A4D7B
:1059B300E064037004A3E06401700874191213D83F
:1059C30074FFF0E4F508F50978081210D474021294
:1059D300114574131213D8AA82AB8312652F1210C8
:1059E300E7852182852283E0602B740912113588B3
:1059F30008890978081210D4750813750900780806
:105A03001210D47C007D00126DA21210E78006E50F
:105A13000C450D6007AA0CAB0D121A9FEEFAEFFBB3
:105A2300121A9F8003750B10A90B741C027A22EEC5
:105A33002406FAE43FFB121B9B22EE240C125AC1EC
:105A430022EE2420125AC1640122EE1255843FF53E
:105A53008322E508240EF582E43509F583E022125A
:105A63005A67A322E08E828F8322A3E0F912247760
:105A730022E05403640122125A7E22E0FAE82AF853
:105A8300E43400F9228E828F83A3A3A31263F61258
:105A93005A7EEE2416125AC1125AA3FCE439FD228F
:105AA300FAE82AF8E439F9E8240422125AB2221255
:105AB3006969A3A3A322F0125ABE22EE240FF58232
:105AC300E43FF583E022790102107C74F4120AFBAF
:105AD300EAFEEBFF8A82F583A3A3A3A3A3A3A3A355
:105AE300124DE32424F582E438F583125A74702EA0
:105AF3008A828B831257037025125B9CE0640570C6
:105B03001D125B9CA3E0F87401686005740668705D
:105B1300071255B6740280051255B67403F0EA24D1
:105B23000A12649D126406E4F0EA2408F8E43F12C2
